:103800000C94571C0C94B61D0C94741C0C94741CD2
:103810000C94741C0C94741C0C94741C0C94741CE8
:103820000C946B1F0C94741C0C94741C0C94741CDE
:103830000C94741C0C94741C0C94741C0C94741CC8
:103840000C94741C0C94741C0C94741C0C94741CB8
:103850000C94741C040309041C03770077007700A0
:103860002E00660069007300630068006C002E0083
:1038700064006500160341005600520055005300D5
:10388000420042006F006F00740012011001FF003F
:103890000008C016DC050001010200010902120047
:1038A0000101008032090400000000000000112422
:1038B0001FBECFE5D4E0DEBFCDBF10E0A0E6B0E094
:1038C000E6EAFFE302C005900D92A236B107D9F7F0
:1038D00010E0A2E6B0E001C01D92AE39B107E1F7F9
:1038E0000E94821F0C94D11F0C94001C85B783602A
:1038F00085BF8BB780648BBF08950F931F93CF93C1
:10390000DF936091840016160CF0B0C080918100A6
:10391000CCE0D0E0C81BD109C857DF4F635080917D
:1039200080008D3209F084C08AE5809361006830A0
:1039300009F092C08881807609F066C010927D00FF
:103940008981882359F410927E008DE790E090934E
:1039500083008093820090E822E063C0853021F4E8
:103960008A8180938500DBC08630B9F58B818130F8
:1039700019F48AE898E304C0823049F48CE998E3AA
:10398000909383008093820090EC22E14AC08330C0
:1039900009F0C7C08A81882349F484E598E39093AD
:1039A00083008093820090EC24E03BC0813049F496
:1039B00088E598E3909383008093820090EC2CE15B
:1039C00030C0823009F0ADC084E798E39093830063
:1039D0008093820090EC26E124C0883019F487E8B7
:1039E00090E00BC0893021F48A818093870097C0D2
:1039F0008A3009F094C08DE790E090938300809323
:103A0000820090E821E00DC0CE010E94D41E282F34
:103A10008F3F31F4888187FD2E81822F90E020C076
:103A200090E88F818823D9F48E818217C8F017C05F
:103A30008091620087FD10C0CE010E94191F8F3F48
:103A400021F48EE18093610004C0882311F090E09E
:103A500004C090E08FEF04C090E880E001C0822FA6
:103A600090936200809360001092840080916100C6
:103A700084FF4AC0809160008F3F09F445C0182F31
:103A8000893008F018E0811B80936000809162000B
:103A900080FD02C00BE401C003EC8F5F80936200E5
:103AA000209182003091830086FD05C0D901912FBD
:103AB000E5E7F0E011C0A5E7B0E080E090E006C0E7
:103AC000F901E80FF91FE491ED9301961817C1F77A
:103AD00005C08D91819391509923D9F7F901E10F98
:103AE000F11DF0938300E093820085E790E0612F61
:103AF0000E94B21D183019F08FEF80936000009380
:103B000074001C5F109361009AE080B38C7061F4C4
:103B10009150D9F71092850010927F0005C090E86F
:103B200001C090EC20E07DCFDF91CF911F910F91EC
:103B30000895A82FB92F8FEF9FEF41E050EA615011
:103B400070F02D9138E0722F7827969587952695FD
:103B500070FF02C0842795273A95A9F7F0CF80958A
:103B600090950895E6DF8D939D930895CF93CFB7F9
:103B7000CF93DF93839BFECF839B0BC0839B09C0B6
:103B8000839B07C0839B05C0839B03C0839B01C0AD
:103B900086C06F93C0918100DD27C857DF4F2F93F8
:103BA00065E5839B03C02F916F91E6CF0F931F9321
:103BB0004F9320E040E15F9300B30C7003FB27F9C3
:103BC0003F9350E03BE039C01C7040642F77012FD9
:103BD00053501EC0406810B31C702F7753501FC045
:103BE000406400B32F770C70B1F15350000023C034
:103BF000406210B32F771C7071F15350000025C044
:103C00000C701027515012F45D5F00001150279581
:103C10002C3F10B3C8F61C700127015027952C3F8C
:103C2000C8F64227499300B30C7010274F73115008
:103C300027952C3FA8F64695469510B31C7059F071
:103C40000127015027952C3F98F66B5A60F33150AD
:103C500000B3B0F61AC03B503195333010E41ABFB0
:103C6000B8F0C31BD0400881033C59F10B3449F133
:103C70001981412F1F7720917F00121731F40936E7
:103C8000A9F10D3289F0013E79F0222720938600B8
:103C90003F915F914F911F910F912F916F91DF9104
:103CA000CF91CFBFCF911895009386003F915F9140
:103CB0004F911F910F912F916F91CAB7C6FD5ACFA7
:103CC000EECF00918600002319F310918400112398
:103CD00041F5343042F1309384000093800010911C
:103CE00081003BE0311B309381001DC000918400B6
:103CF0000130BCF40AE53091610034FD15C0009339
:103D00006100C4E7D0E014C0052710E000C0000047
:103D100002BB1BC0052710E000C01FC0052710E034
:103D200024C04AE502C032ED432FC4E1D0E032E0C6
:103D300011B31C60939A02B311BB5CE020E86AE205
:103D400020FF052702BB279517951C3FE8F66695CF
:103D5000B8F7B1F720FF0527279502BB17951C3F41
:103D6000C8F620FF052727951795000000C002BB65
:103D70001C3FA0F629913A9511F7037F1091850019
:103D800002BBC250D04011F010937F0010E41ABF64
:103D9000086011B3137F402F437F54E05A95F1F729
:103DA00002BB11BB42BB74CFFC018181813071F435
:103DB000F89481E180935700E89581E08BBF1BBEAA
:103DC000E0916300F0916400099523C08230F9F41A
:103DD00081E080936500938180E02281E22FF0E012
:103DE000E82BF92BF0936F00E0936E0010927100B6
:103DF00010927000E199FECFF89483E08093570011
:103E0000E895789407B600FCFDCF2FEF0AC0833009
:103E100011F020E006C01092660080E880936700F1
:103E200022E086E690E09093830080938200822FC8
:103E30000895FF920F931F93CF93DF938C0180918E
:103E40006500813011F08FEF40C0C0916E00D091BD
:103E50006F004091700050917100DA01AC0FBD1FEE
:103E600070E0FF24F3942AC0F894F801E70FF11DE5
:103E7000318120E0808190E0822B932BFD010C01A9
:103E8000F0925700E895112478944E5F5F4F129698
:103E90004038510590F05093710040937000F894B1
:103EA00085E0FE0180935700E895789407B600FC02
:103EB000FDCF1092650081E008C07E5F7617A0F20A
:103EC000509371004093700080E0DF91CF911F917B
:103ED0000F91FF9008951F920F920FB60F92112429
:103EE0008F938FB78093730080917200815080937D
:103EF0007200809173008FBF8F910F900FBE0F9053
:103F00001F901895DF93CF9300D0CDB7DEB781E037
:103F10008BBF82E08BBF83EF82BB8CE081BB1A82B8
:103F200007C0198289818150898389818823D1F7CB
:103F30008A8181508A838A81882399F711BA0E94E5
:103F4000761C78948FB780688FBF88B78B7F88BFC7
:103F500089B7846089BF1DBC1CBC84E08EBD8EE126
:103F60008093720080E881BB0AC00E947D1C8CB5E2
:103F70009DB597FF02C080E001C080E882BB8091C0
:103F80007200882391F781E08093670086E690E0D5
:103F90000E94D41E80E090E00F900F90CF91DF91AF
:063FA0000895F894FFCF24
:023FA600FF5AC0
:0400000300003800C1
:00000001FF
