:1000000064C0DDC17CC07BC07AC079C078C077C0D5
:1000100076C075C074C073C072C071C070C06FC04C
:100020006EC06DC06CC06BC06AC0040309041203CB
:100030006F0062006400650076002E0061007400AD
:1000400010034800490044004B006500790073002C
:100050001201100100000008424231E100010102DA
:1000600000010902220001010080320904000001A0
:10007000030000000921010100012223000705817E
:100080000308000A05010906A101050719E029E78F
:1000900015002501750195088102950175082565F2
:1000A000190029658100C000000204020502060251
:1000B0000702080209020A020B020C020D020E02DC
:1000C0000F02100211021202130011241FBECFE50D
:1000D000D2E0DEBFCDBF10E0A0E6B0E0E8E8F7E098
:1000E00002C005900D92A436B107D9F710E0A4E63E
:1000F000B0E001C01D92AD39B107E1F7E9C280CF90
:1001000035B7336035BF2BB720642BBF83EC8093AA
:10011000730008950F931F93CF93DF939091830003
:1001200019166CF42091800080917F008D3281F14E
:1001300000E8009364001092600010928300109118
:10014000610014FF31C0809160008F3F69F1182F6A
:10015000893008F0CBC0811B8093600080916400DF
:1001600080FFC6C003EC8F5F809364002091810004
:100170003091820086FFBEC0912FF901A9E6B0E060
:1001800091509F3F09F4C0C044914D933196F8CFF0
:100190003AE5309361009B3099F090E020E820939D
:1001A000640090936000C9CF9AE020B32C7009F0EE
:1001B000C1C09150D1F71092840010927E00BAC055
:1001C000C3E9D0E0C21BD1095881507609F087C03D
:1001D00021E730E0109271008981882381F4109228
:1001E0007200309382002093810092E020E86F81BA
:1001F0006623A9F68E81891790F6982FD0CF853087
:1002000079F0863089F0883009F453C0893009F4D8
:1002100057C08A3009F458C08B3009F45BC05DC008
:100220007A817093840059C08B81813071F0823063
:1002300079F08330A9F0813291F5A4E7B0E0B09372
:100240008200A093810099E04FC080E590E021C03A
:10025000E2E6F0E0F0938200E093810092E244C095
:100260008A81882341F48AE290E09093820080930F
:10027000810094E039C0813051F08230A1F500E472
:1002800010E0109382000093810090E12DC08EE277
:1002900090E0909382008093810092E125C08232A9
:1002A00011F544E850E0509382004093810093E2BE
:1002B0001BC026E830E0309382002093810008C004
:1002C0009A819093860009C0309382002093810028
:1002D00091E08CCFB3ECB093730090E087CFCE0168
:1002E000CDD1982F83CF90E020EC81CF18E033CF91
:1002F0000BE439CF912FF901A9E6B0E091509F3F6F
:1003000019F051915D93FACFE901C10FD11DD0933E
:100310008200C0938100612F89E690E04CD01830B4
:1003200019F0FFEFF0936000009368001C5F1093DA
:1003300061003ACFDF91CF911F910F9108951F93E4
:10034000DC01162F8091620084FF0FC020917300A2
:1003500098E8292720937300912FE4E7F0E091506B
:100360009F3F39F03D913193FACF4AE540936200C7
:10037000F3CF612F84E790E01ED01C5F10936200E2
:100380001F910895A82FB92F8FEF9FEF41E050EAFA
:10039000615070F02D9138E0722F782796958795EF
:1003A000269570FF02C0842795273A95A9F7F0CFCC
:1003B000809590950895E6DF8D939D930895CF9352
:1003C000CFB7CF93DF93839BFECF839B0BC0839BE1
:1003D00009C0839B07C0839B05C0839B03C0839B8D
:1003E00001C086C06F93C0918000DD27C957DF4FE1
:1003F0002F9365E5839B03C02F916F91E6CF0F93F9
:100400001F934F9320E040E15F9300B30C7003FB18
:1004100027F93F9350E03BE039C01C7040642F77D0
:10042000012F53501EC0406810B31C702F775350DB
:100430001FC0406400B32F770C70B1F1535000001F
:1004400023C0406210B32F771C7071F1535000002D
:1004500025C00C701027515012F45D5F0000115040
:1004600027952C3F10B3C8F61C7001270150279523
:100470002C3FC8F64227499300B30C7010274F73E6
:10048000115027952C3FA8F64695469510B31C7041
:1004900059F00127015027952C3F98F66B5A60F3CD
:1004A000315000B3B0F61AC03B503195333010E4F0
:1004B0001ABFB8F0C31BD0400881033C59F10B347C
:1004C00049F11981412F1F7720917E00121731F4D5
:1004D0000936A9F10D3289F0013E79F022272093E7
:1004E00085003F915F914F911F910F912F916F91D7
:1004F000DF91CF91CFBFCF911895009385003F91A9
:100500005F914F911F910F912F916F91CAB7C6FDC7
:100510005ACFEECF00918500002319F3109183008C
:10052000112399F534309AF13093830000937F00C2
:10053000109180003BE0311B3093800028C0009177
:100540008300013014F50AE547FD09C030916100D0
:1005500034FD1EC000936100C8E6D0E01DC030919C
:10056000620034FD15C000936200C3E7D0E014C000
:10057000052710E000C0000002BB1BC0052710E0EB
:1005800000C01FC0052710E024C04AE502C032EDBC
:10059000432FC4E1D0E032E011B31C60939A02B360
:1005A00011BB5CE020E86AE220FF052702BB27952B
:1005B00017951C3FE8F66695B8F7B1F720FF0527B9
:1005C000279502BB17951C3FC8F620FF05272795E6
:1005D0001795000000C002BB1C3FA0F629913A9578
:1005E00011F7037F1091840002BBC250D04011F07C
:1005F00010937E0010E41ABF086011B3137F402FE0
:10060000437F54E05A95F1F702BB11BB42BB69CF5F
:1006100059B341E020E030E0922F842F852339F058
:100620002F5F3F4F2830310531F0440FF5CF9F5FEA
:10063000892F9927089553B341E020E030E0922FAD
:10064000642F652339F02F5F3F4F2830310531F09B
:10065000440FF5CF975F892F9927089580E090E0A8
:1006600008959927880F991F89559F4FFC0125915F
:10067000349130936600209365000895FC0125E6CF
:1006800030E0309382002093810080818076803238
:1006900019F080E090E008958181813029F4B8DF7D
:1006A000E0DF82E090E00895823019F08A3051F066
:1006B0000CC047E650E0509382004093810081E0F7
:1006C00090E0089533813093670080E090E00895D2
:1006D000CDE5D2E0DEBFCDBF48E150E02FE00FB660
:1006E000F894A89541BD0FBE21BD1FEF18BB17BAE6
:1006F00015BB14BA03EF02BB8CE081BB1A823A81AE
:1007000031503A83AA80AA2041F019825981515070
:100710005983B980BB20D1F7F2CF11BA65E063BF2E
:10072000EFDC7894FF24DD24EE2435E6A32E30E0C0
:10073000B32EA895EFDC6CDF082FF81611F0DD243E
:10074000D39408B600FE0BC071E078BF109167002B
:10075000112329F094E09E15A0F4ABEFEA0EDD2002
:1007600071F01E2DE0906200E4FE06C0802F79DF5C
:1007700062E0C501E4DDDD24F02EE12EDACFF02EBB
:08078000D8CFDD24D394EECFA5
:04078800FF5A5A00BA
:00000001FF
